:020000040800F2
:10000000780700208901000833110008511000080A
:1000100031110008CF02000855140008000000004C
:10002000000000000000000000000000F9120008BD
:10003000D10200080000000035110008FB12000882
:10004000A3010008A3010008A3010008A301000800
:10005000A3010008A3010008A3010008A3010008F0
:10006000A3010008A3010008A3010008A3010008E0
:10007000A3010008A3010008A3010008A3010008D0
:10008000A3010008A3010008A3010008A3010008C0
:10009000A3010008A3010008A3010008A3010008B0
:1000A000A3010008A3010008A3010008A3010008A0
:1000B000A3010008A3010008A3010008A301000890
:1000C000A3010008A3010008A301000839110008DA
:1000D000A3010008A3010008A3010008A301000870
:1000E000A3010008A3010008A301000800F002F822
:1000F00000F03AF80AA090E8000C82448344AAF188
:100100000107DA4501D100F02FF8AFF2090EBAE885
:100110000F0013F0010F18BFFB1A43F0010318473B
:100120003414000054140000103A24BF78C878C179
:10013000FAD8520724BF30C830C144BF04680C60ED
:10014000704700000023002400250026103A28BF35
:1001500078C1FBD8520728BF30C148BF0B60704739
:100160001FB51FBD10B510BD00F077F81146FFF7A1
:10017000F7FF01F08FF900F095F803B4FFF7F2FFF5
:1001800003BC00F09DF8000009488047094800477B
:10019000FEE7FEE7FEE7FEE7FEE7FEE7FEE7FEE737
:1001A000FEE7FEE704480549054A064B7047000094
:1001B0004F130008ED0000087801002078070020A8
:1001C000780300207803002010B5431C02E010F8EB
:1001D000011B71B18107FAD14FF0013202C88C1AAC
:1001E0008C4314EAC211F9D0C01A0A0603D0C01E0B
:1001F00010BDC01A10BD0A0401D0801E10BD090236
:10020000FCD0401E10BD4FF0000200B513469446CE
:100210009646203922BFA0E80C50A0E80C50B1F15E
:100220002001BFF4F7AF090728BFA0E80C5048BF72
:100230000CC05DF804EB890028BF40F8042B08BF10
:10024000704748BF20F8022B11F0804F18BF00F80C
:10025000012B7047704770477047754600F02CF8C7
:10026000AE4605006946534620F00700854618B0A3
:1002700020B5FFF797FFBDE820404FF000064FF094
:1002800000074FF000084FF0000B21F00701AC46CB
:10029000ACE8C009ACE8C009ACE8C009ACE8C009EA
:1002A0008D46704710B50446AFF300802046BDE888
:1002B0001040FFF762BF00000048704714010020A3
:1002C00001491820ABBEFEE7260002007047FEE79A
:1002D000704772B6FEE7000010B590F821100024B8
:1002E000022903D00421816301243DE001680A68EA
:1002F00022F00E020A6001680A6822F001020A6018
:100300001A4A0168914201D1012121E0174A1432B1
:10031000914201D110211BE0144A2832914201D1AF
:10032000891515E0114A3C32914201D189140FE040
:100330000E4A5032914202D14FF4803108E00B4A0C
:100340006432914202D14FF4801101E04FF080718C
:10035000064A083A5160012180F82110002180F8F6
:100360002010416B01B18847204610BD08000240B3
:1003700070B5044600F00CF90546601C02D0044834
:100380000078044400F004F9401BA042FAD370BD89
:10039000040000202DE9F84FDFF8B8910024A9F1FE
:1003A000040B23460F2709F1040AABF1040EC9E040
:1003B0000125A5402A40AA427DD1674ED1F804C04C
:1003C000ACEB0608B44532D014DCBCF1030F3AD0D4
:1003D00009DCBCF1000F2AD0BCF1010F1CD0BCF12C
:1003E000020F31D11DE0BCF1110F17D0BCF1120F7B
:1003F0002AD119E0B8F5881F19D006DCB8F5803F7E
:1004000015D0B8F5801F1FD111E0B8F5001F0ED030
:10041000B8F5041F18D10AE0CB6815E0CB681B1DA6
:1004200012E0CB6808330FE0CB680C330CE08B682C
:100430002BB1012B4FF0080303D0456104E00423E6
:1004400002E0056100E00023FF2A01D8064601E032
:1004500000F104064FEA840501D9A5F12005D6F87C
:10046000008007FA05FC28EA0C0803FA05F548EABB
:100470000508C6F800804D68ED0062D5374DAE69BD
:1004800046F00106AE61AD6924F0030605F00105F2
:100490000095334D06EB050CDCF80850A607360F27
:1004A00007FA06F825EA0805DFF8B880404503D1C9
:1004B0004FF0000817E044E0DFF8AC80404502D17F
:1004C0004FF001080FE0DFF8A480404502D14FF063
:1004D000020808E0DFF89880404502D14FF0030899
:1004E00001E04FF0040808FA06F848EA0508CCF8DD
:1004F00008804D68D9F80060ED024D4601D51643DD
:1005000000E096432E604D68DAF80060AD02554673
:1005100001D5164300E096432E604D68DBF800607D
:10052000AD035D4601D5164300E096432E604D684D
:10053000DEF80060ED03754601D5164300E09643F2
:100540002E60641C0D682A46E5407FF431AFBDE89B
:10055000F88F000008040140000011100010024054
:100560000000014000080140000C01400010014063
:1005700000140140C26821EA02030A4043EA024132
:10058000016170470AB1016170470904FBE700008F
:10059000014880687047000004000020024881681C
:1005A000027811448160704704000020074810B5AC
:1005B000016841F010010160032000F075F80F2080
:1005C00000F006F800F024F8002010BD00200240E2
:1005D00070B50D4D04464FF47A712878B1FBF0F0F8
:1005E0000A490968B1FBF0F000F0A0FC48B9102CF2
:1005F00007D200222146501E00F036F800206C6021
:1006000070BD012070BD000004000020100000201B
:100610000C4808B5816941F001018161816901F0EF
:1006200001010091C16941F08051C161C06900F0D0
:10063000805000900448416821F0E06141F0007171
:10064000416008BD0010024000000140002809DBA5
:1006500000F01F02012191404009800000F1E020DC
:10066000C0F8001170470000F0B40E4B1B680C4638
:10067000C3F30223C3F10705042D00D90425191D76
:10068000072901D2002300E0DB1E012606FA05F14E
:10069000491E214099409E40761E16403143F0BCD1
:1006A00000F0D9BE0CED00E0064900F00702086832
:1006B0004FF6FF03184040EA0220034A1043086047
:1006C000704700000CED00E00000FA052DE9F0474E
:1006D0000F46050061D0434E306800F00700B84275
:1006E00009D2306820F0070038433060306800F0ED
:1006F0000700B84251D128683B4C810712D540070A
:1007000003D5606840F4E06060602878000703D596
:10071000606840F4605060606068A96820F0F00094
:10072000084360602878C00728D06868012810D086
:100730002168022810D0890700292EDA616821F08B
:10074000030101436160FFF723FF804641F28839CE
:100750000DE021688903EFE78901EDE7FFF718FF56
:10076000A0EB0801494502D90320BDE8F087606885
:10077000696800F00C00B0EB810FEFD1306800F039
:100780000700B8420BD9306820F0070038433060CA
:10079000306800F00700B84201D00120E5E7287872
:1007A000400705D56068E96820F4E06008436060B0
:1007B0002878000706D56068296920F4605040EA6F
:1007C000C100606000F038F86168084AC1F30311A5
:1007D000515CC8400649086006480068FFF7F8FE0B
:1007E0000020C2E70020024000100240321500083D
:1007F00010000020080000200448054900684968EE
:10080000044AC1F30221515CC84070471000002027
:100810000010024042150008044805490068496874
:10082000044AC1F3C221515CC84070471000002047
:1008300000100240421500080E4A51680E4801F0AF
:100840000C03042B11D0082B0FD10C48C1F38343A8
:10085000C903C05C0AD55168084AC1F34041921EE1
:10086000515C054A5043B0FBF1F0704704494843DE
:10087000704700000010024000127A0022150008A4
:1008800000093D002DE9F84F040070D02078C04DDC
:10089000C00749D06868C0F38100012807D06868A4
:1008A000C0F38100022809D16868C00306D5286812
:1008B000800339D560680028E7D035E06068B0F57E
:1008C000803F0BD010B1B0F5A02F11D0286820F4D4
:1008D00080302860286820F4802002E0286840F4F6
:1008E00080302860606890B1FFF752FE06460AE04B
:1008F000286840F480202860F0E700BFFFF748FE3A
:10090000801B642873D828688003F7D50CE0FFF7B4
:100910003FFE064605E000BFFFF73AFE801B642855
:10092000F0D828688003F7D420789A4E80074FF0DB
:1009300001094FF0000839D5686810F00C0F07D096
:100940006868C0F38100022809D16868C00306D432
:100950002868800714D52069012808D110E0206993
:10096000B0B1C6F80090FFF713FE074605E00AE1B4
:10097000FFF70EFEC01B0228C4D828688007F7D5F1
:100980002868616920F0F80040EAC10028600DE0A5
:10099000C6F80080FFF7FCFD074604E0FFF7F8FD0E
:1009A000C01B022823D828688007F7D420780007C6
:1009B0002CD57948A169D9B1C0F80090FFF7E8FDBE
:1009C000074604E0FFF7E4FDC01B02280FD8686A61
:1009D0008007F7D571484FF4FA510068B0FBF1F089
:1009E000009000BF0098411E0091FAD20EE080E016
:1009F000C0F80080FFF7CCFD074604E0FFF7C8FD14
:100A0000C01B022875D8686A8007F7D42078400791
:100A100060D5E8690027C00008D4E86940F080503C
:100A2000E861E869012700F0805000905C480168A7
:100A3000C90513D40168834641F480710160FFF752
:100A4000A7FD824606E000BFFFF7A2FDA0EB0A006B
:100A500064284ED8DBF80000C005F5D5E068012811
:100A60000AD008B1052813D0286A20F001002862B6
:100A7000286A20F0040002E0286A40F001002862A1
:100A8000E06841F2883B98B1FFF782FD82460BE0B7
:100A9000286A40F004002862EEE700BFFFF778FD07
:100AA000A0EB0A0159455AD8286A8007F6D50CE010
:100AB000FFF76EFD824605E0FFF76AFDA0EB0A0135
:100AC00059454CD8286A8007F6D41FB1E86920F050
:100AD0008050E861E06988B36968C1F38101022947
:100AE00044D00228C6F8608004D0FFF751FD0446C8
:100AF00038E034E0FFF74CFD074604E0FFF748FD1F
:100B0000C01B02282BD828688001F7D4206AB0F5D2
:100B1000803F05D16868A16820F400300843686010
:100B2000D4E908010843696821F474110843686036
:100B3000C6F86090FFF72CFD044606E025E000BFF4
:100B4000FFF726FD001B022809D828688001F7D589
:100B50001BE000BFFFF71CFD001B022802D9032089
:100B6000BDE8F88F28688001F4D40EE00128F7D0A2
:100B70006868226A00F48031914204D1616A00F40D
:100B80007010884201D00120EAE70020E8E7000069
:100B90000010024000004242800442421000002047
:100BA000007000407047704738B5044600684268DE
:100BB0008168C9434B0606D5CB0704D1D3435B06F6
:100BC00001D4216C57E08B0704D4D3431B0601D416
:100BD000616C50E08B0601D54B0646D4D3439B068F
:100BE00043D44B060AD494F85130032B3ED0636DA6
:100BF00043F004036365C36883680093890609D4DE
:100C0000616D41F00101616581680091016821F029
:100C100040010160606D002827D02068416821F004
:100C2000E0014160012084F85100900722D0206843
:100C3000416821F003014160114DE06C40B1456312
:100C4000E06CFFF749FB18B1606D40F04000606553
:100C5000A06C002809D04563A06CFFF73DFB00287D
:100C600003D0606D40F04000606538BDC1688068A9
:100C7000009038BD216F01B02046BDE830400847E4
:100C8000C111000870B5040009D0606A002540B1A8
:100C900025616561A56294F8510040B120E0012012
:100CA00070BD6068B0F5827FF4D0E561F2E784F84A
:100CB00050502B48A0652B48E0652B4820662B48F8
:100CC00060662B48A0662B48E0662B4820672B48BF
:100CD0006067A06F08B92A48A06701462046884788
:100CE000022084F851002068016821F04001016071
:100CF000A088218900F4827001F404410843A1898D
:100D000001F400610843217C01F002010843217DC8
:100D100001F001010843218B01F400710843217F98
:100D200001F03801084394F8201001F080010843D5
:100D3000218D01F40051084321680860A069042155
:100D400001EA1040216848602068C16921F400610F
:100D5000C1616565012084F85100002070BD00006C
:100D6000250F00088F0E0008290F0008270F000824
:100D7000910E00082B0F0008A70B0008A50B000818
:100D8000850D000830B585B00024009401940294CC
:100D900003940068184988422BD11848816941F4AE
:100DA00080518161816901F480510491816941F030
:100DB000040181618069124D00F004000490A020BC
:100DC0000090022001900320039069462846FFF717
:100DD000E1FA4020CDE90004694628460294FFF775
:100DE000D9FA002211462320FFF73EFC2320FFF70B
:100DF0002DFC05B030BD0000003001400010024065
:100E00000008014010B5002372B190F85040012C49
:100E100010D0012480F8504090F85140012C0BD0A4
:100E200090F851400CB324E0416D41F080014165E0
:100E3000012010BD022010BD0A291AD2DFE801F0FE
:100E40000507090B0D0F11132325826516E0C265F6
:100E500014E0026612E0426610E082660EE0C266AE
:100E60000CE002670AE0426708E008290BD0092974
:100E70000BD0416D41F0800141650123002180F8D4
:100E80005010184610BD8267F8E7C267F6E7704752
:100E90007047000029B122B190F85130012B19D1CF
:100EA00001E00120704790F85030012B12D001234F
:100EB00080F85030032380F85130002343650163EC
:100EC0008286C28683638387C3870364C16819B13E
:100ED000124902E002207047114941648168B1F56E
:100EE000004F09D101680A6822F040020A600168D7
:100EF0000A6842F480420A6001680A68520603D414
:100F00000A6842F040020A6080F850300068416888
:100F100041F0A0014160002070470000011200086C
:100F200021120008704770477047704710B5401E87
:100F3000B0F1807F01D3012010BD4FF0E02460614B
:100F40000F21601700F087FA0020A06107202061C0
:100F5000002010BD70477047704770477047000011
:100F600070B5040004D094F84100002510B10DE0E4
:100F7000012070BD84F84050204600F0E9F9206F50
:100F800008B914482067014620468847242084F881
:100F900041002068C16821F40051C160204600F082
:100FA000FDF92068016921F49041016120684169DF
:100FB00021F02A0141612068C16841F40051C160FB
:100FC0006564202084F8410084F8420065630020B5
:100FD00070BD0000D90F000830B585B00024009422
:100FE00001940294039400681449884224D114485F
:100FF000816941F480418161816901F480410491FA
:10100000816941F00401816180690E4D00F00400A6
:1010100004904FF400700090022001900320039090
:1010200069462846FFF7B6F92815CDE90004694658
:1010300028460294FFF7AEF905B030BD00380140F4
:101040000010024000080140704770477047704729
:10105000FEE7000070B586B00024144800940194A7
:1010600002940394816941F010018161816901F06A
:1010700010010491816941F00401816180690C4E85
:1010800000F004004FF40055049000222946304639
:10109000FFF778FA01200095CDE9010402200390C2
:1010A00069463046FFF776F906B070BD0010024081
:1010B000001001400F4810B50D4901604FF48271D6
:1010C000416000218160C1604FF400720161C0E99C
:1010D0000512C1610162416281620A21C162FFF7AA
:1010E000D1FD002803D0BDE81040FFF7F2B810BDD5
:1010F000003001401C0000200C4810B50A49016076
:101100004FF4E1314160002181600C22C160C0E9EF
:1011100004128161C161FFF723FF002803D0BDE8FD
:101120001040FFF7D6B810BD003801409C000020E9
:10113000FEE7FEE7704700000148FFF735BD0000FD
:101140001C00002038B504461C4845F6C051006814
:10115000B0FBF1F0642148430090FFF719FA024612
:1011600020680099A1B1491E009181688907F8D5CE
:10117000416821F0A00141606421204600F026F87A
:1011800018B1606D40F020006065A06828B108E0EB
:10119000616D41F020016165EAE72068C1688068FF
:1011A0000090012084F85100606D08B1216F00E0CB
:1011B000A16D01B02046BDE8304008471000002076
:1011C000406A0021C187C186016F0847F8B51546FE
:1011D0000E460B46009204460122022100F030F830
:1011E00040B93346002280212046009500F028F8BF
:1011F000002804D0606D40F0200060650320F8BD39
:10120000016B02680988D160016B891C0163C18E82
:10121000491EC186C18E002901D1FFF793BF7047D7
:10122000016B026809781173016B491C0163C18E5F
:10123000491EC186C18E002901D1FFF783BF7047C7
:101240002DE9F8431E46914688460446089DFFF75F
:101250009FF9401B351AFFF79BF9074625480068A0
:10126000C0F3CB30684338E0701C37D0FFF790F9FB
:10127000C01BA84203D215B1009860B32CE02068CF
:10128000416821F0E00141606068B0F5827F0BD1D8
:10129000A068B0F5004F02D0B0F5806F04D120688F
:1012A000016821F040010160A06AB0F5005F09D13A
:1012B0002068016821F4005101602068016841F450
:1012C00000510160012084F85100002084F8500092
:1012D0000320BDE8F8830025401E00902068816847
:1012E00038EA010004D000214945BDD10020F0E7D3
:1012F0000121F9E7100000207047FFF74FB910B542
:1013000090B028216846FEF77EFF14210AA8FEF758
:101310007AFF022000900120049010200024059004
:1013200007946846FFF7AEFA08B172B6FEE70F20E1
:10133000CDE90A040C940D9400210AA80E94FFF73D
:10134000C5F9002801D072B6FEE710B010BD704795
:10135000094981640949C16409490165094941652F
:10136000094981650949C16509490166094941661B
:101370000949C166704700004F1000084D10000871
:101380004B100008491000085D0F0008570F0008B7
:101390005B0F0008590F0008550F000870B5044690
:1013A00000680169E26821F440511143016121693B
:1013B000A0680843616908432168CA6841F20C6368
:1013C0009A430243CA6020684169A26921F44071CE
:1013D000114341611E492068884202D1FFF71CFA7F
:1013E00001E0FFF709FA00EBC00101EB00126068B1
:1013F00064218000B2FBF0F3B3FBF1F36FF0180649
:101400007343B2FBF0F5B2FBF0F605EB8305322334
:1014100003EB0515B5FBF1F5B6FBF1F605F0F005AC
:1014200005EB0615B2FBF0F6B2FBF0F0B0FBF1F005
:101430006FF01802504306EB800003EB0010B0FB86
:10144000F1F0216800F00F002844886070BD0000B2
:1014500000380140FEE70907090E002804DB00F10F
:10146000E02080F80014704700F00F0000F1E02049
:1014700080F8141D7047000010B5828801680024B0
:101480000348FFF707FD00B90124204610BD000006
:101490001C0000201CB5FFF789F8FFF730FFFFF7AD
:1014A000D9FD00F019F800F039F8094800F016F8F5
:1014B000084800680090FEF787FEADF804004FF47E
:1014C000FA742046FEF754FF6846FFF7D5FFF8E7A9
:1014D000FD14000800000020FFF7ECBD10B5044625
:1014E000034A00210348FFF78DFC0348046010BD48
:1014F0000D1500081C000020140000204FF40051BE
:101500000148FFF737B800000010014002480068AA
:10151000002800D00047704714000020FFF7ECBD02
:10152000010202030405060708090A0B0C0D0E0F41
:101530001010000000000000000001020304060774
:1015400008090000000001020304000048656C6CFB
:101550006F00000074150008000000201C0000004F
:1015600028010008901500081C0000205C070000FE
:10157000440100084C1500080100000010000000A4
:101580000000000000127A000000000000000000CF
:04000005080000ED02
:00000001FF
