:020000040800F2
:1000000010070020910100084B130008E5120008BA
:1000100049130008290600083F16000800000000E8
:100020000000000000000000000000005D14000857
:100030002B060008000000004D1300085F140008A4
:10004000AB010008AB010008AB010008AB010008E0
:10005000AB010008AB010008AB010008AB010008D0
:10006000AB010008AB010008AB010008AB010008C0
:10007000AB010008AB010008AB010008AB010008B0
:10008000AB010008AB010008AB010008AB010008A0
:10009000AB010008AB010008AB010008AB01000890
:1000A000AB010008AB010008AB010008AB01000880
:1000B000AB010008AB010008AB010008AB01000870
:1000C000AB010008AB010008AB010008AB01000860
:1000D000AB010008AB010008AB010008AB01000850
:1000E000AB010008AB010008AB01000800F002F80A
:1000F00000F03FF80AA090E8000C82448344AAF183
:100100000107DA4501D100F034F8AFF2090EBAE880
:100110000F0013F0010F18BFFB1A43F0010318473B
:100120005816000078160000103A24BF78C878C12D
:10013000FAD8520724BF30C830C144BF04680C60ED
:10014000704700000023002400250026103A28BF35
:1001500078C1FBD8520728BF30C148BF0B60704739
:10016000782900F07180002070471FB51FBD10B5C1
:1001700010BD00F0F0F91146FFF7F7FF01F078FA33
:1001800000F00EFA03B4FFF7F2FF03BC00F016FA1A
:100190000948804709480047FEE7FEE7FEE7FEE71B
:1001A000FEE7FEE7FEE7FEE7FEE7FEE70448054957
:1001B000054A064B70470000B3140008ED00000824
:1001C0001001002010070020100300201003002061
:1001D0000FB41CB5074B06AA7B44694600900598EE
:1001E00000F0A1F90020694600F0B0F91CBC5DF8F0
:1001F00014FB00007103000070B5044685690068B7
:10020000C10601D5302600E02026C00707D070BD0A
:10021000D4E9012130469047206A401C20626D1EBF
:10022000F6D570BD70B5044685690078C00707D162
:1002300070BDD4E9012120209047206A401C206233
:100240006D1EF6D570BD000070B504460D46214602
:100250001068AFF300802188090502D50F4A7A445F
:1002600002E00E4A7A440E32002104F1240305E034
:1002700000F00F060009965D5E54491C0028F7D176
:1002800020780023000704D5702D02D009B1022385
:1002900011322046BDE8704000F0E7B8DC140000E1
:1002A0002DE9F05F894604464FF0000ADFF824B1DB
:1002B000FB44C0F820A02046E168884700287DD094
:1002C000252806D0D4E901219047206A401C2062ED
:1002D000F1E700255F462046E1688847202806466A
:1002E00007DB312E05D2B81910F8200C08B10543F0
:1002F000F1E7A80701D525F00405C4F81CA00027E4
:10030000C4F818A02A2E09D0304601F0A9F938B354
:1003100004EB8708303EC8F8186019E059F8041B50
:10032000204604EB87029161E1688847012F064669
:1003300018D1E069002820DA25F020051DE0D8F862
:10034000180000EB800006EB40003038C8F81800B9
:100350002046E1688847064601F082F90028EED180
:10036000012F0AD02E2E08D12046E16888477F1C35
:100370000646022F45F02005C4DBA069002803DAF9
:10038000404245F00105A061E80701D025F01005C5
:10039000A6B1A6F14100192802D8203645F400651F
:1003A0004A463146204625604D46FFF7D9FE60B1EA
:1003B000012807D0ED1D25F0070000E007E000F15F
:1003C000080978E705F1040975E730467AE7206AFD
:1003D000BDE8F09FB214000010B5431C02E010F815
:1003E000011B71B18107FAD14FF0013202C88C1A9A
:1003F0008C4314EAC211F9D0C01A0A0603D0C01EF9
:1004000010BDC01A10BD0A0401D0801E10BD090223
:10041000FCD0401E10BD4FF0000200B513469446BC
:100420009646203922BFA0E80C50A0E80C50B1F14C
:100430002001BFF4F7AF090728BFA0E80C5048BF60
:100440000CC05DF804EB890028BF40F8042B08BFFE
:10045000704748BF20F8022B11F0804F18BF00F8FA
:10046000012B70477047704770472DE9F0470D46E4
:1004700099469246044600F124080168880604D58E
:10048000E06921F01001216000E00120A84201DDB7
:10049000471B00E00027A1697A1902EB0900081A3E
:1004A000A0612078C00602D42046FFF7A5FE0026F2
:1004B00008E0D4E901211AF806009047206A401CA0
:1004C000761C20624E45F4DB2078C0060AD5204613
:1004D000FFF792FE06E0D4E9012130209047206A20
:1004E000401C2062381EA7F10107F4DC07E0D4E9C4
:1004F000012118F805009047206A401C2062281E40
:10050000A5F10105F3DC2046FFF78CFE20780006FC
:1005100002D50220BDE8F0870120FBE701694A1CF3
:1005200002610878704700B58FB0CDE90131002134
:10053000059105497944CDE9031011466846FFF756
:10054000AFFE0FB000BD0000E5FFFFFF0A6802F834
:10055000010B0A607047754600F02CF8AE460500A6
:100560006946534620F00700854618B020B5FFF7CE
:100570001DFEBDE820404FF000064FF000074FF091
:1005800000084FF0000B21F00701AC46ACE8C009B1
:10059000ACE8C009ACE8C009ACE8C0098D467047BA
:1005A00010B50446AFF300802046BDE81040FFF7C9
:1005B000E9BD000000487047B00000200149182044
:1005C000ABBEFEE7260002007047000030B55524A0
:1005D00089B0204600F0BCFE0546034622460CA129
:1005E0006846FFF7F5FD6846FFF7F6FE81B26846FC
:1005F00000F060FF552D07D000F076FE4FF4FA7042
:1006000000F014F809B030BD00F076FEF6E7000007
:1006100054583D307825303258202052583D30789B
:10062000253032580D0A0000FEE7704770B50446C9
:1006300000F004F90546601C02D004480078044428
:1006400000F0FCF8401BA042FAD370BD000000206F
:100650002DE9F84FDFF8B8910024A9F1040B2346E7
:100660000F2709F1040AABF1040EC9E00125A540EA
:100670002A40AA427DD1674ED1F804C0ACEB0608EF
:10068000B44532D014DCBCF1030F3AD009DCBCF124
:10069000000F2AD0BCF1010F1CD0BCF1020F31D1E8
:1006A0001DE0BCF1110F17D0BCF1120F2AD119E0D7
:1006B000B8F5881F19D006DCB8F5803F15D0B8F51D
:1006C000801F1FD111E0B8F5001F0ED0B8F5041F30
:1006D00018D10AE0CB6815E0CB681B1D12E0CB688F
:1006E00008330FE0CB680C330CE08B682BB1012B87
:1006F0004FF0080303D0456104E0042302E00561E4
:1007000000E00023FF2A01D8064601E000F10406BC
:100710004FEA840501D9A5F12005D6F8008007FA33
:1007200005FC28EA0C0803FA05F548EA0508C6F8AE
:1007300000804D68ED0062D5374DAE6946F0010688
:10074000AE61AD6924F0030605F001050095334D57
:1007500006EB050CDCF80850A607360F07FA06F87A
:1007600025EA0805DFF8B880404503D14FF00008BE
:1007700017E044E0DFF8AC80404502D14FF00108BB
:100780000FE0DFF8A480404502D14FF0020808E0F6
:10079000DFF89880404502D14FF0030801E04FF0A8
:1007A000040808FA06F848EA0508CCF808804D68FD
:1007B000D9F80060ED024D4601D5164300E096439E
:1007C0002E604D68DAF80060AD02554601D516433B
:1007D00000E096432E604D68DBF80060AD035D4697
:1007E00001D5164300E096432E604D68DEF80060A8
:1007F000ED03754601D5164300E096432E60641C58
:100800000D682A46E5407FF431AFBDE8F88F00005F
:1008100008040140000011100010024000000140D7
:1008200000080140000C014000100140001401408C
:100830000AB1016170470904FBE7000001488068C4
:1008400070470000000000200248816802781144CF
:100850008160704700000020074810B5016841F032
:1008600010010160032000F067F80F2000F006F887
:1008700000F024F8002010BD0020024070B50D4D9E
:1008800004464FF47A712878B1FBF0F00A49096800
:10089000B1FBF0F000F058FC48B9102C07D2002250
:1008A0002146501E00F028F800206C6070BD012029
:1008B00070BD0000000000200C0000200C4808B5AE
:1008C000816941F001018161816901F001010091BB
:1008D000C16941F08051C161C06900F08050009051
:1008E0000448416821F0E06141F00071416008BDB9
:1008F0000010024000000140F0B40E4B1B680C4693
:10090000C3F30223C3F10705042D00D90425191DE3
:10091000072901D2002300E0DB1E012606FA05F1BB
:10092000491E214099409E40761E16403143F0BC3E
:1009300000F086BE0CED00E0064900F007020868F2
:100940004FF6FF03184040EA0220034A10430860B4
:10095000704700000CED00E00000FA052DE9F047BB
:100960000F46050061D0434E306800F00700B842E2
:1009700009D2306820F0070038433060306800F05A
:100980000700B84251D128683B4C810712D5400777
:1009900003D5606840F4E06060602878000703D504
:1009A000606840F4605060606068A96820F0F00002
:1009B000084360602878C00728D06868012810D0F4
:1009C0002168022810D0890700292EDA616821F0F9
:1009D000030101436160FFF731FF804641F288392E
:1009E0000DE021688903EFE78901EDE7FFF726FFB6
:1009F000A0EB0801494502D90320BDE8F0876068F3
:100A0000696800F00C00B0EB810FEFD1306800F0A6
:100A10000700B8420BD9306820F007003843306037
:100A2000306800F00700B84201D00120E5E72878DF
:100A3000400705D56068E96820F4E060084360601D
:100A40002878000706D56068296920F4605040EADC
:100A5000C100606000F038F86168084AC1F3031112
:100A6000515CC8400649086006480068FFF706FF69
:100A70000020C2E7002002400010024026170008B4
:100A80000C00002004000020044805490068496863
:100A9000044AC1F30221515CC84070470C00002099
:100AA00000100240361700080448054900684968EC
:100AB000044AC1F3C221515CC84070470C000020B9
:100AC00000100240361700080E4A51680E4801F027
:100AD0000C03042B11D0082B0FD10C48C1F3834316
:100AE000C903C05C0AD55168084AC1F34041921E4F
:100AF000515C054A5043B0FBF1F07047044948434C
:100B0000704700000010024000127A00161700081B
:100B100000093D002DE9F84F040070D02078C04D49
:100B2000C00749D06868C0F38100012807D0686811
:100B3000C0F38100022809D16868C00306D528687F
:100B4000800339D560680028E7D035E06068B0F5EB
:100B5000803F0BD010B1B0F5A02F11D0286820F441
:100B600080302860286820F4802002E0286840F463
:100B700080302860606890B1FFF760FE06460AE0AA
:100B8000286840F480202860F0E700BFFFF756FE99
:100B9000801B642873D828688003F7D50CE0FFF722
:100BA0004DFE064605E000BFFFF748FE801B6428A7
:100BB000F0D828688003F7D420789A4E80074FF049
:100BC00001094FF0000839D5686810F00C0F07D004
:100BD0006868C0F38100022809D16868C00306D4A0
:100BE0002868800714D52069012808D110E0206901
:100BF000B0B1C6F80090FFF721FE074605E00AE114
:100C0000FFF71CFEC01B0228C4D828688007F7D550
:100C10002868616920F0F80040EAC10028600DE012
:100C2000C6F80080FFF70AFE074604E0FFF706FE5D
:100C3000C01B022823D828688007F7D42078000733
:100C40002CD57948A169D9B1C0F80090FFF7F6FD1D
:100C5000074604E0FFF7F2FDC01B02280FD8686AC0
:100C60008007F7D571484FF4FA510068B0FBF1F0F6
:100C7000009000BF0098411E0091FAD20EE080E083
:100C8000C0F80080FFF7DAFD074604E0FFF7D6FD65
:100C9000C01B022875D8686A8007F7D420784007FF
:100CA00060D5E8690027C00008D4E86940F08050AA
:100CB000E861E869012700F0805000905C48016815
:100CC000C90513D40168834641F480710160FFF7C0
:100CD000B5FD824606E000BFFFF7B0FDA0EB0A00BD
:100CE00064284ED8DBF80000C005F5D5E06801287F
:100CF0000AD008B1052813D0286A20F00100286224
:100D0000286A20F0040002E0286A40F0010028620E
:100D1000E06841F2883B98B1FFF790FD82460BE016
:100D2000286A40F004002862EEE700BFFFF786FD66
:100D3000A0EB0A0159455AD8286A8007F6D50CE07D
:100D4000FFF77CFD824605E0FFF778FDA0EB0A0186
:100D500059454CD8286A8007F6D41FB1E86920F0BD
:100D60008050E861E06988B36968C1F381010229B4
:100D700044D00228C6F8608004D0FFF75FFD044627
:100D800038E034E0FFF75AFD074604E0FFF756FD70
:100D9000C01B02282BD828688001F7D4206AB0F540
:100DA000803F05D16868A16820F40030084368607E
:100DB000D4E908010843696821F4741108436860A4
:100DC000C6F86090FFF73AFD044606E025E000BF54
:100DD000FFF734FD001B022809D828688001F7D5E9
:100DE0001BE000BFFFF72AFD001B022802D90320E9
:100DF000BDE8F88F28688001F4D40EE00128F7D010
:100E00006868226A00F48031914204D1616A00F47A
:100E10007010884201D00120EAE70020E8E70000D6
:100E20000010024000004242800442420C000020B8
:100E30000070004070B5040009D0606A002540B120
:100E400025616561A56294F8510040B10CE0012074
:100E500070BD6068B0F5827FF4D0E561F2E784F898
:100E60005050204600F040F8022084F851002068DD
:100E7000016821F040010160A088218900F482709E
:100E800001F404410843A18901F400610843217C75
:100E900001F002010843217D01F001010843218B8B
:100EA00001F400710843217F01F03801084394F8F0
:100EB000201001F080010843218D01F40051084306
:100EC00021680860A069042101EA10402168486097
:100ED0002068C16921F40061C1616565012084F861
:100EE0005100002070BD000030B585B00024009492
:100EF00001940294039400681449884223D1144851
:100F0000816941F480518161816901F480510491CA
:100F1000816941F00401816180690E4D00F0040097
:100F20000490A020009002200190032003906946C5
:100F30002846FFF78DFB4020CDE90004694628468E
:100F40000294FFF785FB05B030BD00000030014082
:100F500000100240000801402DE9FF4F81B01D46FE
:100F6000934604464FF001090E9EFFF767FC0746C3
:100F700094F851006168012806D0B1F5827F3CD118
:100F8000A168C9BB042838D10298002871D0BBF1F0
:100F9000000FFBD0002DF9D094F8500001282CD080
:100FA0004FF0010A84F850A094F85100042802D0B0
:100FB000052084F851004FF00008C4F85480C4F8AC
:100FC00038B0E587A58702992163E586A586C4F830
:100FD0004080C4F8448020680168490603D4016851
:100FE00041F040010160E068B0F5006F606808D032
:100FF000F0B3012D49D081E0FFE7022005B0BDE844
:10100000F08F08B1012D39D1206B21680088C860AC
:10101000206B801C2063E08E401EE0862EE020685E
:10102000816889070FD5E18E69B1B9F1010F0AD145
:10103000216B0988C160206B801C2063E08E401EFC
:10104000E0864FF0000920688168C9070CD0E18F65
:1010500051B1C068A16B0880A06B801CA063E08FB9
:10106000401EE0874FF00109FFF7E8FBC01B01E0DD
:101070000BE067E0B04201D3701C50D1E08E002835
:10108000CDD1E08F0028CAD13EE0206B21680078E6
:101090000873206B401C2063E08E401EE0862DE02C
:1010A0002068816889070FD5E18E69B1B9F1010F18
:1010B0000AD1216B09780173206B401C2063E08EFC
:1010C000401EE0864FF0000920688168C9070CD0F7
:1010D000E18F51B1C068A16B0870A06B401CA06388
:1010E000E08F401EE0874FF00109FFF7A7FBC01B10
:1010F000B04202D3701C01D011E086B1E08E00280E
:10110000CED1E08F0028CBD13A463146204600F0C0
:101110002FF950B12020606584F8508012E084F8E7
:1011200051A084F85080032068E7A06818B92068AF
:10113000C1688068009084F851A084F85080606D88
:101140000028F1D0012059E710B5401EB0F1807F92
:1011500001D3012010BD4FF0E02460610F21601722
:1011600000F06EFA0020A06107202061002010BD71
:1011700070B5040004D094F84100002510B106E0D9
:10118000012070BD84F84050204600F023F8242050
:1011900084F841002068C16821F40051C1602046F4
:1011A00000F0B8F92068016921F4904101612068DC
:1011B000416921F02A0141612068C16841F4005170
:1011C000C1606564202084F8410084F842006563B2
:1011D000002070BD30B585B00024009401940294C5
:1011E000039400681449884224D11448816941F469
:1011F00080418161816901F480410491816941F0FC
:101200000401816180690E4D00F0040004904FF4E8
:101210000070009002200190032003906946284648
:10122000FFF716FA2815CDE900046946284602940E
:10123000FFF70EFA05B030BD003801400010024043
:10124000000801402DE9F843044690F84100984613
:1012500016460D46202802D00220BDE8F88385B14D
:101260007EB100206064212084F84100FFF7E6FA97
:10127000A6848146E684A0682027B0F5805F02D06E
:1012800003E00120E9E7206910B12E4600250EE0B9
:1012900000260CE08021204600F098F9A8B9C6B1DC
:1012A00016F8010B21684860E08C401EE084E08C59
:1012B0004B464FF00002CDF800800028EAD14FF0F5
:1012C0004001204600F082F940B184F841700320CB
:1012D000C3E735F8020BC0F30800E3E784F8417078
:1012E0000020BAE7FEE7000000224FF40051014859
:1012F000FFF79EBA00100140012251030148FFF799
:1013000097BA0000001001400E4810B50C4901606A
:101310004FF48271416000218160C1604FF400721E
:101320000161C0E90512C1610162416281620A2165
:10133000C162FFF77FFD002801D072B6FEE710BD45
:101340000030014010000020FEE7FEE7704700007B
:1013500001B582B064200090012301AA02A90348CC
:10136000FFF7FAFD9DF804000EBD000010000020FC
:10137000F8B515460E460B4600920446012202219E
:1013800000F010F840B93346002280212046009535
:1013900000F008F8002804D0606D40F0200060657F
:1013A0000320F8BD2DE9F8431E46914688460446C1
:1013B000089DFFF743FA401B351AFFF73FFA07462F
:1013C00025480068C0F3CB30684338E0701C37D044
:1013D000FFF734FAC01BA84203D215B1009860B3DE
:1013E0002CE02068416821F0E00141606068B0F5C0
:1013F000827F0BD1A068B0F5004F02D0B0F5806FAE
:1014000004D12068016821F040010160A06AB0F5B4
:10141000005F09D12068016821F400510160206853
:10142000016841F400510160012084F8510000205E
:1014300084F850000320BDE8F8830025401E00908A
:101440002068816838EA010004D000214945BDD1F7
:101450000020F0E70121F9E70C0000207047FFF7BA
:10146000F3B910B590B028216846FEF7D4FF1421D7
:101470000AA8FEF7D0FF022000900120049010205F
:101480000024059007946846FFF744FB08B172B644
:10149000FEE70F20CDE90A040C940D9400210AA860
:1014A0000E94FFF75BFA002801D072B6FEE710B089
:1014B00010BD70470A46014664230148FFF7C2BECB
:1014C0006800002001680C3151E8002F22F490726E
:1014D00041E80023002BF5D10168143151E8002FB9
:1014E00022F0010241E80023002BF5D1016B012914
:1014F00009D101680C3151E8002F22F0100241E8B7
:101500000023002BF5D1202180F842100021016337
:101510007047000070B5044600680169E26821F474
:101520004051114301612169A06808436169084382
:101530002168CA6841F20C639A430243CA6020687A
:101540004169A26921F44071114341611E4920683B
:10155000884202D1FFF7A8FA01E0FFF795FA00EB05
:10156000C00101EB0012606864218000B2FBF0F35F
:10157000B3FBF1F36FF018067343B2FBF0F5B2FB67
:10158000F0F605EB8305322303EB0515B5FBF1F50A
:10159000B6FBF1F605F0F00505EB0615B2FBF0F62B
:1015A000B2FBF0F0B0FBF1F06FF01802504306EB25
:1015B000800003EB0010B0FBF1F0216800F00F0099
:1015C0002844886070BD0000003801402DE9F843D0
:1015D000984617460D460446089E24E0701C22D00B
:1015E000FFF72CF9A0EB0800B0421AD8CEB1206862
:1015F000C168490717D5802D15D0402D13D001683B
:10160000C94309070FD401680025406800902046AF
:10161000FFF758FF0820606484F840500120BDE8BF
:10162000F8830320FBE72068006835EA000004D057
:101630000020B842D2D00020F1E70120F9E7FEE710
:101640000907090E002804DB00F1E02080F80014EF
:10165000704700F00F0000F1E02080F8141D704783
:1016600030380A2801D2012070470020704700005E
:1016700086B0FFF7F1F8FFF7F4FE0024214800944C
:10168000019402940394816941F0100181618169A0
:1016900001F010010491816941F0040181618069C8
:1016A000194E00F004004FF4005504900022294622
:1016B0003046FFF7BDF801200095CDE90104022076
:1016C000039069463046FEF7C3FFFFF71DFE104842
:1016D0000E4901604FF4E131C0E901140C21C460EE
:1016E000C0E904418461C461FFF742FD08B172B6EC
:1016F000FEE74FF4FA7400BFFEF768FF2046FEF7DE
:1017000095FFF9E700100240001001400038014049
:1017100068000020010202030405060708090A0BFD
:101720000C0D0E0F10100000000000000000010260
:101730000304060708090000000001020304303119
:1017400032333435363738394142434445464030E8
:10175000580030313233343536373839616263649A
:1017600065664030780004000008000000000000BA
:10177000000200010000100098170008000000207F
:101780001000000028010008A81700081000002021
:1017900000070000440100080100000010000000E4
:0817A0000000000000127A00B5
:04000005080000ED02
:00000001FF
